{
  "contractName": "VoteDemo",
  "abi": [
    {
      "inputs": [
        {
          "internalType": "uint16",
          "name": "_numberOfCandididates",
          "type": "uint16"
        }
      ],
      "stateMutability": "nonpayable",
      "type": "constructor"
    },
    {
      "anonymous": false,
      "inputs": [
        {
          "indexed": true,
          "internalType": "address",
          "name": "previousOwner",
          "type": "address"
        },
        {
          "indexed": true,
          "internalType": "address",
          "name": "newOwner",
          "type": "address"
        }
      ],
      "name": "OwnershipTransferred",
      "type": "event"
    },
    {
      "inputs": [],
      "name": "isVoteOpened",
      "outputs": [
        {
          "internalType": "bool",
          "name": "",
          "type": "bool"
        }
      ],
      "stateMutability": "view",
      "type": "function",
      "constant": true
    },
    {
      "inputs": [],
      "name": "numberOfCandididates",
      "outputs": [
        {
          "internalType": "uint16",
          "name": "",
          "type": "uint16"
        }
      ],
      "stateMutability": "view",
      "type": "function",
      "constant": true
    },
    {
      "inputs": [],
      "name": "owner",
      "outputs": [
        {
          "internalType": "address",
          "name": "",
          "type": "address"
        }
      ],
      "stateMutability": "view",
      "type": "function",
      "constant": true
    },
    {
      "inputs": [],
      "name": "renounceOwnership",
      "outputs": [],
      "stateMutability": "nonpayable",
      "type": "function"
    },
    {
      "inputs": [
        {
          "internalType": "address",
          "name": "newOwner",
          "type": "address"
        }
      ],
      "name": "transferOwnership",
      "outputs": [],
      "stateMutability": "nonpayable",
      "type": "function"
    },
    {
      "inputs": [],
      "name": "voterCount",
      "outputs": [
        {
          "internalType": "uint256",
          "name": "",
          "type": "uint256"
        }
      ],
      "stateMutability": "view",
      "type": "function",
      "constant": true
    },
    {
      "inputs": [
        {
          "internalType": "address",
          "name": "",
          "type": "address"
        }
      ],
      "name": "voterVoted",
      "outputs": [
        {
          "internalType": "bool",
          "name": "",
          "type": "bool"
        }
      ],
      "stateMutability": "view",
      "type": "function",
      "constant": true
    },
    {
      "inputs": [
        {
          "internalType": "uint16",
          "name": "_voteTo",
          "type": "uint16"
        }
      ],
      "name": "vote",
      "outputs": [],
      "stateMutability": "nonpayable",
      "type": "function"
    },
    {
      "inputs": [],
      "name": "closeVote",
      "outputs": [],
      "stateMutability": "nonpayable",
      "type": "function"
    },
    {
      "inputs": [
        {
          "internalType": "uint16",
          "name": "_candidate",
          "type": "uint16"
        }
      ],
      "name": "viewCandidateVoteCount",
      "outputs": [
        {
          "internalType": "uint256",
          "name": "",
          "type": "uint256"
        }
      ],
      "stateMutability": "view",
      "type": "function",
      "constant": true
    }
  ],
  "bytecode": "0x608060405234801561001057600080fd5b5060405162000f6b38038062000f6b833981810160405281019061003491906101a1565b61005061004561009660201b60201c565b61009e60201b60201c565b80600360006101000a81548161ffff021916908361ffff1602179055506001600360026101000a81548160ff0219169083151502179055506000600481905550506101ce565b600033905090565b60008060009054906101000a900473ffffffffffffffffffffffffffffffffffffffff169050816000806101000a81548173ffffffffffffffffffffffffffffffffffffffff021916908373ffffffffffffffffffffffffffffffffffffffff1602179055508173ffffffffffffffffffffffffffffffffffffffff168173ffffffffffffffffffffffffffffffffffffffff167f8be0079c531659141344cd1fd0a4f28419497f9722a3daafe3b4186f6b6457e060405160405180910390a35050565b600080fd5b600061ffff82169050919050565b61017e81610167565b811461018957600080fd5b50565b60008151905061019b81610175565b92915050565b6000602082840312156101b7576101b6610162565b5b60006101c58482850161018c565b91505092915050565b610d8d80620001de6000396000f3fe608060405234801561001057600080fd5b506004361061009e5760003560e01c8063715018a611610066578063715018a6146101495780638da5cb5b14610153578063c2e82aac14610171578063ddb6e1161461018f578063f2fde38b146101ab5761009e565b80630485270b146100a3578063329d3346146100d35780633ce29ecc146100dd57806342169e481461010d57806362196b291461012b575b600080fd5b6100bd60048036038101906100b89190610884565b6101c7565b6040516100ca91906108ca565b60405180910390f35b6100db61029f565b005b6100f760048036038101906100f29190610943565b610325565b604051610104919061098b565b60405180910390f35b610115610345565b60405161012291906108ca565b60405180910390f35b61013361034b565b60405161014091906109b5565b60405180910390f35b61015161035f565b005b61015b6103e7565b60405161016891906109df565b60405180910390f35b610179610410565b604051610186919061098b565b60405180910390f35b6101a960048036038101906101a49190610884565b610423565b005b6101c560048036038101906101c09190610943565b6105f1565b005b600081600360009054906101000a900461ffff1661ffff168161ffff1610610224576040517f08c379a000000000000000000000000000000000000000000000000000000000815260040161021b90610a57565b60405180910390fd5b600360029054906101000a900460ff1615610274576040517f08c379a000000000000000000000000000000000000000000000000000000000815260040161026b90610ae9565b60405180910390fd5b610297600160008561ffff1661ffff1681526020019081526020016000206106e9565b915050919050565b6102a76106f7565b73ffffffffffffffffffffffffffffffffffffffff166102c56103e7565b73ffffffffffffffffffffffffffffffffffffffff161461031b576040517f08c379a000000000000000000000000000000000000000000000000000000000815260040161031290610b55565b60405180910390fd5b6103236106ff565b565b60026020528060005260406000206000915054906101000a900460ff1681565b60045481565b600360009054906101000a900461ffff1681565b6103676106f7565b73ffffffffffffffffffffffffffffffffffffffff166103856103e7565b73ffffffffffffffffffffffffffffffffffffffff16146103db576040517f08c379a00000000000000000000000000000000000000000000000000000000081526004016103d290610b55565b60405180910390fd5b6103e5600061076b565b565b60008060009054906101000a900473ffffffffffffffffffffffffffffffffffffffff16905090565b600360029054906101000a900460ff1681565b600360029054906101000a900460ff16610472576040517f08c379a000000000000000000000000000000000000000000000000000000000815260040161046990610bc1565b60405180910390fd5b80600360009054906101000a900461ffff1661ffff168161ffff16106104cd576040517f08c379a00000000000000000000000000000000000000000000000000000000081526004016104c490610a57565b60405180910390fd5b600260003373ffffffffffffffffffffffffffffffffffffffff1673ffffffffffffffffffffffffffffffffffffffff16815260200190815260200160002060009054906101000a900460ff161561055a576040517f08c379a000000000000000000000000000000000000000000000000000000000815260040161055190610c2d565b60405180910390fd5b61057d600160008461ffff1661ffff16815260200190815260200160002061082f565b6004600081548092919061059090610c7c565b91905055506001600260003373ffffffffffffffffffffffffffffffffffffffff1673ffffffffffffffffffffffffffffffffffffffff16815260200190815260200160002060006101000a81548160ff0219169083151502179055505050565b6105f96106f7565b73ffffffffffffffffffffffffffffffffffffffff166106176103e7565b73ffffffffffffffffffffffffffffffffffffffff161461066d576040517f08c379a000000000000000000000000000000000000000000000000000000000815260040161066490610b55565b60405180910390fd5b600073ffffffffffffffffffffffffffffffffffffffff168173ffffffffffffffffffffffffffffffffffffffff1614156106dd576040517f08c379a00000000000000000000000000000000000000000000000000000000081526004016106d490610d37565b60405180910390fd5b6106e68161076b565b50565b600081600001549050919050565b600033905090565b600360029054906101000a900460ff1661074e576040517f08c379a000000000000000000000000000000000000000000000000000000000815260040161074590610bc1565b60405180910390fd5b6000600360026101000a81548160ff021916908315150217905550565b60008060009054906101000a900473ffffffffffffffffffffffffffffffffffffffff169050816000806101000a81548173ffffffffffffffffffffffffffffffffffffffff021916908373ffffffffffffffffffffffffffffffffffffffff1602179055508173ffffffffffffffffffffffffffffffffffffffff168173ffffffffffffffffffffffffffffffffffffffff167f8be0079c531659141344cd1fd0a4f28419497f9722a3daafe3b4186f6b6457e060405160405180910390a35050565b6001816000016000828254019250508190555050565b600080fd5b600061ffff82169050919050565b6108618161084a565b811461086c57600080fd5b50565b60008135905061087e81610858565b92915050565b60006020828403121561089a57610899610845565b5b60006108a88482850161086f565b91505092915050565b6000819050919050565b6108c4816108b1565b82525050565b60006020820190506108df60008301846108bb565b92915050565b600073ffffffffffffffffffffffffffffffffffffffff82169050919050565b6000610910826108e5565b9050919050565b61092081610905565b811461092b57600080fd5b50565b60008135905061093d81610917565b92915050565b60006020828403121561095957610958610845565b5b60006109678482850161092e565b91505092915050565b60008115159050919050565b61098581610970565b82525050565b60006020820190506109a0600083018461097c565b92915050565b6109af8161084a565b82525050565b60006020820190506109ca60008301846109a6565b92915050565b6109d981610905565b82525050565b60006020820190506109f460008301846109d0565b92915050565b600082825260208201905092915050565b7f496e76616c69642043616e6469646174652e0000000000000000000000000000600082015250565b6000610a416012836109fa565b9150610a4c82610a0b565b602082019050919050565b60006020820190508181036000830152610a7081610a34565b9050919050565b7f566f74652053686f756c6420626520636c6f736564206265666f72652073686f60008201527f7720726573756c74000000000000000000000000000000000000000000000000602082015250565b6000610ad36028836109fa565b9150610ade82610a77565b604082019050919050565b60006020820190508181036000830152610b0281610ac6565b9050919050565b7f4f776e61626c653a2063616c6c6572206973206e6f7420746865206f776e6572600082015250565b6000610b3f6020836109fa565b9150610b4a82610b09565b602082019050919050565b60006020820190508181036000830152610b6e81610b32565b9050919050565b7f566f746520436c6f7365642e0000000000000000000000000000000000000000600082015250565b6000610bab600c836109fa565b9150610bb682610b75565b602082019050919050565b60006020820190508181036000830152610bda81610b9e565b9050919050565b7f416c726561647920566f7465642e000000000000000000000000000000000000600082015250565b6000610c17600e836109fa565b9150610c2282610be1565b602082019050919050565b60006020820190508181036000830152610c4681610c0a565b9050919050565b7f4e487b7100000000000000000000000000000000000000000000000000000000600052601160045260246000fd5b6000610c87826108b1565b91507fffffffffffffffffffffffffffffffffffffffffffffffffffffffffffffffff821415610cba57610cb9610c4d565b5b600182019050919050565b7f4f776e61626c653a206e6577206f776e657220697320746865207a65726f206160008201527f6464726573730000000000000000000000000000000000000000000000000000602082015250565b6000610d216026836109fa565b9150610d2c82610cc5565b604082019050919050565b60006020820190508181036000830152610d5081610d14565b905091905056fea2646970667358221220ea3809eb50431218fc0749a093352335e32081bcabc35e784d027da8f9efa61064736f6c634300080c0033",
  "immutableReferences": {},
  "source": "// SPDX-License-Identifier: MIT\npragma solidity >=0.4.22 <0.9.0;\n\nimport \"@openzeppelin/contracts/access/Ownable.sol\";\nimport \"@openzeppelin/contracts/utils/Counters.sol\";\n\ncontract VoteDemo is Ownable {\n    using Counters for Counters.Counter;\n\n    mapping(uint16 => Counters.Counter) private voteResult;\n\n    mapping(address => bool) public voterVoted;\n    uint16 public numberOfCandididates;\n    bool public isVoteOpened;\n    uint256 public voterCount;\n\n    constructor(uint16 _numberOfCandididates) {\n        numberOfCandididates = _numberOfCandididates;\n        isVoteOpened = true;\n        voterCount = 0;\n    }\n\n    modifier voteOpened() {\n        require(isVoteOpened, \"Vote Closed.\");\n        _;\n    }\n\n    modifier validCandidate(uint16 _candidate) {\n        require(_candidate < numberOfCandididates, \"Invalid Candidate.\");\n        _;\n    }\n\n    function vote(uint16 _voteTo) external voteOpened validCandidate(_voteTo) {\n        require(!voterVoted[msg.sender], \"Already Voted.\");\n\n        voteResult[_voteTo].increment();\n\n        voterCount++;\n        voterVoted[msg.sender] = true;\n    }\n\n    function _closeVote() internal voteOpened {\n        isVoteOpened = false;\n    }\n\n    function closeVote() external onlyOwner {\n        _closeVote();\n    }\n\n    function viewCandidateVoteCount(uint16 _candidate) external view validCandidate(_candidate) returns(uint) {\n        require(!isVoteOpened, \"Vote Should be closed before show result\");\n\n        return voteResult[_candidate].current();\n    }\n}\n",
  "sourcePath": "/Users/homejh/projects/BLOCKCHAIN/web3-boilerplate/contracts/VoteDemo.sol",
  "compiler": {
    "name": "solc",
    "version": "0.8.12+commit.f00d7308.Emscripten.clang"
  },
  "schemaVersion": "3.4.7",
  "updatedAt": "2022-05-10T11:48:29.626Z",
  "networkType": "ethereum",
  "devdoc": {
    "kind": "dev",
    "methods": {
      "owner()": {
        "details": "Returns the address of the current owner."
      },
      "renounceOwnership()": {
        "details": "Leaves the contract without owner. It will not be possible to call `onlyOwner` functions anymore. Can only be called by the current owner. NOTE: Renouncing ownership will leave the contract without an owner, thereby removing any functionality that is only available to the owner."
      },
      "transferOwnership(address)": {
        "details": "Transfers ownership of the contract to a new account (`newOwner`). Can only be called by the current owner."
      }
    },
    "version": 1
  },
  "userdoc": {
    "kind": "user",
    "methods": {},
    "version": 1
  }
}